:020000040800F2
:1000000040050020AD510008E94F0008F14F0008FD
:10001000F34F0008F54F0008F74F000800000000FC
:10002000000000000000000000000000F94F000880
:10003000FB4F000800000000FD4F0008FF4F0008C4
:10004000E5510008E9510008ED510008F1510008A0
:10005000F5510008F9510008FD510008015200084F
:1000600005520008095200080D52000811520008FC
:1000700015520008195200081D52000821520008AC
:1000800025520008295200082D520008315200085C
:1000900035520008395200083D520008415200080C
:1000A00045520008495200084D52000851520008BC
:1000B00055520008595200085D520008615200086C
:1000C00065520008695200086D520008715200081C
:1000D00075520008795200087D52000881520008CC
:1000E00085520008895200088D520008915200087C
:1000F00095520008995200089D520008A15200082C
:10010000A5520008A9520008AD520008B1520008DB
:10011000B5520008B9520008BD520008C15200088B
:10012000C5520008C9520008CD520008D15200083B
:10013000D5520008D9520008DD520008E1520008EB
:10014000E5520008E9520008ED520008F15200089B
:10015000F5520008F9520008FD520008015300084A
:1001600005530008095300080D53000811530008F7
:1001700015530008195300081D5300080000000023
:1001800021530008255300082DE9F04F82460FF255
:100190004860A5B015461E46D0E90023CDE91223DC
:1001A000002004910D900DF150086FF0004900E01F
:1001B0003D440020ADF8020012AB4FF0FF3229465B
:1001C0000DF1020001F0A5F80746012F04DA2878A6
:1001D000471EBF41FF43FF0FBDF8020025280CBF9B
:1001E000A7F1010BBB46BBF1010F0EDB2C4614F847
:1001F000011B0498D0470028049000F0F3800D986C
:10020000401CBBF1010B0D90F1D1BDF80200252877
:1002100007D100200790089009900A900B900C904D
:1002200005E00028C4D10D98DEE240F0010015F889
:10023000011F2029F9D023290DD02B2904D02D29E5
:1002400006D030290AD00CE040F0020080B2EEE780
:1002500040F00400FAE740F00800F7E740F0100033
:10026000F4E72A290ED13168316051F8042B31604E
:10027000002A0F9204D5514240F004000F9180B241
:100280006D1C11E000210F9109E00F99494505D03F
:1002900001EB810302EB430130390F916D1C2A7889
:1002A000A2F130010A29F0D329782E2903D04FF08A
:1002B000FF310E911DE015F8011F2A2907D1316881
:1002C00031606D1C51F8042B31600E9211E0002159
:1002D0000E9109E00E99494505D001EB810302EB2F
:1002E000430130390E916D1C2A78A2F130010A29A0
:1002F000F0D3ADF840000FF2E840297801F01AF889
:1003000008B115F8010B8DF842009DF842006828ED
:1003100002BF29786829622005D06C2804BF28789C
:100320006C2803D171208DF842006D1C14A8069032
:1003300015F8017BB7F125002AD01C3800F0DB80CE
:10034000001F022840F2D780133800F0FC800938E3
:1003500000F0D180801E00F06781401E00F03D81DA
:10036000401E022840F2C780001F00F03681401F67
:1003700000F09280401E00F0E680401E35D0C01E86
:100380000BD0801E00F0DF80C01E00F0DC806EE12C
:1003900025208DF85000012073E19DF842006C2863
:1003A0003068306014D050F8044B306005940E9FD4
:1003B000002F04D5204600F0C9FF074606E03A4664
:1003C0000021204600F0DEFF00B1071B089759E12D
:1003D00050F8042B306002A9504600F03FFA002884
:1003E00040F150814FF0FF30FEE131683160002272
:1003F00051F8040B31600021CDE9020114A80590E9
:10040000DDE902019142069F08BF90424FF03C0C8B
:1004100001D10E9AC2B100F00F033033DBB23A2B98
:10042000A8BF2733ACF101020009BB54944640EA4F
:10043000017009090022914208BF904204D0059A38
:1004400007EB0C039A42E6D307EB0C000590CCF1C6
:100450003C010E980891814209DA401A0A904FF641
:10046000EF71BDF840000840ADF840000AE10028F7
:1004700040F108819DF8400000F01400102840F081
:1004800001810F98079A801A0A9A801A401A012847
:10049000C0F2F8800A90F5E09DF8420062281AD078
:1004A000682806D06A280CD06C281CD0712808D087
:1004B00019E03068306050F8041B30600D980880F7
:1004C000E0E03068306050F8042B30600D98C117C0
:1004D000C2E90001D6E03068306050F8041B30609B
:1004E0000D980870CEE03068306050F8041B306022
:1004F0000D980860C6E03068C01D20F00702326029
:10050000D2E9000108323260CDE90201002902D5AA
:1005100007982D210AE0BDF84000810702D5079811
:100520002B2103E0C00705D50798202108F800100B
:10053000401C079014A8079908440590394602A862
:1005400000F098FB9EE09DF842006C280DD07128C9
:1005500018BF6A2809D13068C01D20F00702326038
:10056000D2E900010832326005E03168316051F8AB
:10057000040B31600021CDE902019DF8420068289A
:1005800003D1DDE9020180B20BE0622803D1DDE98D
:100590000201C0B205E0742818BF7A2804D1DDE951
:1005A00002010021CDE902019DF84000000732D58B
:1005B000DDE902230020834208BF82422BD047F0AE
:1005C0002000782827D10798302108F80010401C17
:1005D000411C079108F800701DE09DF8420031466B
:1005E00000F005F9CDE90201DDE9022300218B428B
:1005F00002DA07982D210AE0BDF84000810702D5F4
:1006000007982B2103E0C00705D50798202108F89B
:100610000010401C079014A807990844059039461B
:1006200002A800F0A1FA2DE09DF842006C2809D044
:10063000012007903068306050F8041B30608DF85E
:1006400050101FE03068306001AA50F8041B306081
:10065000ADF804100020ADF8060002A94FF0FF30FD
:100660000E90504600F0FAF800280BD5BAE6252087
:100670008DF8500001200790380003D088F80170F1
:10068000022007900F980799401A0A99401A089972
:10069000401A0B99401A0999401A0C99471A9DF86B
:1006A0004000400710D42020012F8DF800000BDB04
:1006B0003C4601236A4602A9504600F005FE002888
:1006C0007FF490AE641EF4D1DDF81CB0BBF1000FD6
:1006D00014AC0DD014F8011B0498D04700280490E6
:1006E0003FF480AE0D98401CBBF1010B0D90F1D191
:1006F00030208DF800000A9C012C0ADB01236A4699
:1007000002A9504600F0E0FD00287FF46BAE641EA5
:10071000F4D1DDF820B0059CBBF1000F0DD014F82A
:10072000011B0498D047002804903FF45BAE0D985D
:10073000401CBBF1010B0D90F1D130208DF8000071
:100740000B9C012C0ADB01236A4602A9504600F0EB
:10075000BBFD00287FF446AE641EF4D105980899CD
:10076000DDF824B04418BBF1000F0DD014F8011BC4
:100770000498D047002804903FF434AE0D98401CF4
:10078000BBF1010B0D90F1D130208DF800000C9CD5
:10079000012C0ADB01236A4602A9504600F094FDB1
:1007A00000287FF41FAE641EF4D19DF8400040077E
:1007B0007FF5FFAC2020012F8DF80000FFF6F9AC8B
:1007C00001236A4602A9504600F07EFD00287FF40E
:1007D00009AE7F1EF4D1ECE4000000000000000030
:1007E000686A6C747A4C000025B0BDE8F08F62280E
:1007F00026D068281DD06A2808D06C2827D07128F8
:1008000004D0742823D07A280CD020E00868C01DBA
:1008100020F007000860D0E900230830086019467E
:10082000104670470A680A6052F8040B0A600021FB
:1008300070470A680A6052F8040B0A6000B20BE0C5
:100840000A680A6052F8040B0A6040B204E00A68C1
:100850000A6052F8040B0A60C11770472DE9F44F83
:100860000D4694B0D5F830A0BAF1000F804648BFCD
:100870006FF0004A00F0B2FD696B401801900FF66E
:100880007820D0E90023CDE9022395F8380040070D
:1008900002D40198412805D240200DF110090190A1
:1008A000002609E000F0A0FD5FEA0009F8D14FF052
:1008B000FF3056E1AAEB040ABAF1010FC0F2CE8074
:1008C0001498018802AA0DF1010000F0E5FD00284E
:1008D000044600F1DE801498008810B9641E00F10F
:1008E000D880A245C0F2BA80686901992218914265
:1008F00080F0A2806E634042296A401AA969401ABA
:10090000696A401AE969401AA96A461A95F83800D6
:10091000400710D42020012E8DF800000BDB374655
:1009200001236A462946404600F0CEFC002840F0EC
:10093000B0807F1EF4D1D5F814B0BBF1000F4F4644
:100940000DD017F8011BA868C0470028A86000F068
:10095000A080E86A401CBBF1010BE862F1D13020B5
:100960008DF800002F6A012F0ADB01236A46294611
:10097000404600F0A9FC002840F08B807F1EF4D197
:10098000D5F818B0EF68BBF1000F0CD017F8011BB9
:10099000A868C0470028A8607BD0E86A401CBBF16B
:1009A000010BE862F2D130208DF800006F6A012F50
:1009B00009DB01236A462946404600F085FC0028F1
:1009C00067D17F1EF5D1E868A969D5F81CB0471832
:1009D000BBF1000F0CD017F8011BA868C047002816
:1009E000A86056D0E86A401CBBF1010BE862F2D166
:1009F00030208DF80000AF6A012F09DB01236A4621
:100A00002946404600F060FC002842D17F1EF5D107
:100A100095F8380040070DD52020012E8DF80000F4
:100A200008DB01236A462946404600F04DFC80BBA6
:100A3000761EF6D100266E61224668690DF101012D
:100A4000484400F037FD6869201868611498801CDC
:100A50001490801E008800287FF42CAF686B6969B1
:100A6000401A296A401AA969401A696A401AE96954
:100A7000401AA96AA0EB010A95F83800400710D483
:100A8000BAF1010F0DDB5446A8682021C047A860C9
:100A900010B94FF0FF365DE0E86A401C641EE86262
:100AA000F2D16B694A462946404600F00DFC002809
:100AB000EFD12C6A012C0ADBA8683021C04700283E
:100AC000A860E6D0E86A401C641EE862F4D1AB6915
:100AD000EA682946404600F0F7FB0028D9D16C6A45
:100AE000012C0ADBA8683021C0470028A860D0D0BC
:100AF000E86A401C641EE862F4D1E868A969EB6901
:100B000042182946404600F0DFFB0028C1D1AC6AFC
:100B1000012C0ADBA8683021C0470028A860B8D0A3
:100B2000E86A401C641EE862F4D195F8380040077A
:100B30000ED5BAF1010F0BDBA8682021C0470028B1
:100B4000A860A6D0E86A401CBAF1010AE862F3D1B5
:100B50006E616E6304A881451CBF484600F0E6FC48
:100B6000304615B0BDE8F08F2DE9F3430546084641
:100B70002F696F2808BF082405D041F0200178298B
:100B800014BF0A2410243C26D5E90023642818BF8A
:100B900069289046994606D100218B4203DAD8F1A4
:100BA000000869EB49090020814508BF80450CD148
:100BB000286B50B9082C38D195F83800000734D587
:100BC00030203B2687F83B002FE0701E0090064641
:100BD000404649462246E31700F0E8FC02F13000A7
:100BE000C0B23A2803DB9DF8041051390818B855F3
:100BF000494640462246E31700F0D8FC8046894625
:100C00000020814508BF804503D0E868B9198842B3
:100C1000DBD3082C09D195F83800000705D5B85D5D
:100C2000302802D0761E3020B855B919E960C6F1D7
:100C30003C00296BA861884208DA081A28624FF63E
:100C4000EF71288F08402887BDE8F38300290ED56F
:100C500095F8381001F01401102908D1696B6A6900
:100C6000891A2A6A891A0E1A012EA8BF2E62BDE8B7
:100C7000F38300002DE9F24F04468EB0D4E9000161
:100C8000CDE9020104AF9DF8380040F0200BBBF124
:100C9000610F0AD0206B002848BF062004D408BF8B
:100CA000BBF1670F01D1012020636168C1F30A50D5
:100CB00040F2FF7290421CD1080304BF2068002854
:100CC00009D10320A0619DF8380061381A2835D376
:100CD0000FF2386108E00320A0619DF83800613808
:100CE0001A2828D30FF21C61E068032200F0E2FB0F
:100CF000BDE1012815DA204600F0CFFC012810DB09
:100D000000250020BBF1610F1FD1E16830220A707D
:100D10008A1CE2609DF83820612A0CBF7822582294
:100D20000FE0626840F2FE3161F31E52451A6260C4
:100D30004FF0FF30E6E70FF2C851D5E70FF2C85188
:100D4000D2E74A706169891C616110B900260025EB
:100D500084E1BBF1610F40F09880206BD4E900ABD7
:100D600000284CBF2126461CDDE902010022002399
:100D700000F0B6FC36B23ABF8BF00040CDE902A0DD
:100D8000CDE902AB06F101082D1FB8F1010F8DF876
:100D900010200DF1110736DBDDE9020100220023EE
:100DA00000F0B6FC2FD21C2102A800F0C9FCDDE93E
:100DB000020100F04FFDA8F10708B8F1010F8146CC
:100DC00009DB00F073FD02460B46DDE9020100F08D
:100DD00085FDCDE90201F81D072105E009F00F02AC
:100DE00000F8012D4FEA2919B9F1010F01DB491E65
:100DF000F4D5491E5CBF002200F8012DF9D5C71DAE
:100E0000B8F1010FC8DA0DF11100391AB142B8BFBB
:100E10000E4636B230000DF111072FD4884206DAA3
:100E200004A9014449780829A8BF0F2100DA00214C
:100E300004AA024400E0761E12F80139401E8B42DB
:100E4000F9D00F2904D104A901444A78521C4A70F0
:100E5000002802D504AF761C2D1D36B2701E0DD4AD
:100E600039180A783032D2B23A2A03DB9DF838308A
:100E70003A3B9A18401E01F80129F2D5206B002850
:100E800040F1EC80701E2063E8E0DDE90201002201
:100E9000002300F025FC3CBF81F00041CDE90201B8
:100EA0002DB247F2975068434B49DFF8309190FBE1
:100EB000F1F52DB2C5F1070ABAF1010F90461CDB1E
:100EC000DDE902675FEACA7007D542464B46304605
:100ED000394600F0C3FD06460F46404649464246A5
:100EE0004B464FEA6A0A00F0B9FDBAF1000F80469E
:100EF0008946E7D1CDE9026724E0CAF1000A00265D
:100F0000374F14E05FEACA7007D542464B46304679
:100F1000394600F0A3FD06460F4640464946424684
:100F20004B4600F09BFD4FEA6A0A80468946BAF1BB
:100F3000000FE7D1DDE9020132463B4600F060FEDA
:100F4000CDE90201BBF1660F216BDFF898900CBF71
:100F500005F10A0006204618142EA8BF13263020DB
:100F60008DF810000DF11107012E3DDBDDE90201C6
:100F700000F086FC07F1080104220A23B0FBF3F31A
:100F800003EB8307A0EB4700303001F8010C0A2087
:100F9000B3FBF0F000EB8007A3EB47033033521EA6
:100FA00001F8023DE9D1083E012E01F10807DBDB23
:100FB000DDE9020100F064FC00F082FC02460B4611
:100FC000DDE9020100F08AFC00224B4600F046FDFC
:100FD000CDE90201CAE700BFA0860100000024405D
:100FE0000000F03F84D797410DF11100381A0DF140
:100FF000110702E0401E6D1E7F1C39783029F9D0A0
:10100000BBF1660F08BF691C04D0BBF1650F0CBFB4
:1010100001210021226B8E1836B2B042B8BF0646BD
:1010200036B231001AD4814204DA785C3528A8BF80
:10103000392000DA30207A18521E00E0761E12F8AD
:101040000139491E8342F9D0392802D1785C401C0D
:101050007854002902D57F1E761C6D1C2DB29DF898
:101060003810009533B23A46204600F003F80FB02E
:10107000BDE8F08F2DE9F04786B006468A469046D7
:101080001D4600F006FF012D406A376B90F8009076
:1010900002DA01250FF278284AF02000BDF9384025
:1010A000662808BF641C12D0672878D114F1040F99
:1010B0007BDBBC4279DA96F83800641C000702D466
:1010C000BD42B8BF2F4624B23F1B48BF002724B201
:1010D000F068B169012C23DA4A1C30234354012FF4
:1010E00003DA96F83800000703D5F06800F802909C
:1010F000521CE742B8BF7C4224B260427062E719DA
:10110000AF42B261B8BF3D46F068B3692DB2F56138
:101110002A464146184400F0CDF9781BB062BCE085
:1011200022469542084416DA2A46414600F0C2F9A2
:10113000B1696918601B012FB161706203DA96F81A
:101140003800000705D5F06800F80190F069401CF0
:10115000F061B762A1E0414600F0ACF9B069201837
:101160002D1B012F03DA96F83810090703D5F16813
:1011700001F80090401CB0612DB2AF42B8BF3D46AF
:10118000F068B3692DB22A4608EB0401184400F058
:1011900091F9B0692818B061781B70627DE0BAF1EE
:1011A000610F14D14FF0700A16E0BD4204DA96F8D0
:1011B0003810090758BF2F467F1E48BF0027BAF1D5
:1011C000670F14BF4FF0450A4FF0650A04E0BAF10B
:1011D000410F08BF4FF0500AB169F368481CB06175
:1011E000012F18F8012B5A5403DA96F83810090722
:1011F00017D5F168431CB36101F80090012F10DB93
:101200006D1E2DB2AF42B8BF3D46F0682DB22A46E2
:101210004146184400F04EF9B0692818B061781BB7
:101220007062F068B1690144200081F800A004D424
:101230002B20487001F1020804E02D224A7001F1D0
:1012400002086442002502AF08E00A22684600F066
:1012500039FE019807F8010B6D1C009C21B2012991
:10126000F3DA022D06DA4AF02000652804BF3020A8
:1012700008F8010B4DB9302008F8010B07E06D1E8E
:1012800002A8405D303008F8010B012DF7DAF06854
:10129000B1690844A8EB0000F06196F8380000F04E
:1012A000140010280DD17069B1690818716A081806
:1012B000F1690818B16A0818716B8842BCBF081A36
:1012C000306206B0BDE8F087F8B504460D46164614
:1012D0001F46002077B116F8011BA868A047A86038
:1012E00030B1E86A401CE86200207F1EF3D1F2BDF5
:1012F0004FF0FF30F2BD00000000000000000000D1
:101300006E616E004E414E00696E6600494E4600A9
:101310003000F8B504460D4616461F4600F0DAFDCB
:101320003B4632462946204601B0BDE8F04000F079
:10133000E8BD00000278C9B28A421AB11CBF10F899
:10134000012FF9E718BF00207047000000F10103EA
:10135000810704D010F8011B89B18107FAD1026816
:10136000B2F10131914311F0803F04BF50F8042FD6
:10137000F6E710F8011B11B110F8011BFBE7C01ACA
:1013800070470000C9B2830706D0521E22D310F85E
:10139000013B9942F7D11FE0083A13D302F104024E
:1013A00041EA012141EA014150F8043B121F21BFEB
:1013B0004B40A3F1013C2CEA030C1CF0803FF3D01E
:1013C000C9B2001F083210F8013B521E28BF91EA33
:1013D000030FF8D818BF0120401E704780B500F0F9
:1013E00079FD012002BD000070B5054605F10F0032
:1013F000C408C046C046E400A54232D2082C04D23C
:10140000082402E0083000F091F822480268110038
:101410000CD1011D0A6802B31368A34238BF111D25
:10142000F8D310E01D68A5420DD2191D0B68002BE2
:10143000F8D11268011D00E0191D0B6893420CD011
:101440001D68A542F8D361B10D682A68A2F10803AE
:10145000A3420AD26A680A600FE000F075FD002816
:10146000D0D1C046C046002070BD2B190B60121BA6
:101470006E685E600B681A602C60096800291DBFE9
:101480004A68002A091D00210160C046C04605F1D6
:10149000080070BD2808002070B504460D461646A9
:1014A00000F018FD324629462046BDE8704000F0A5
:1014B0001BBD000062B38B0708D0521E11F8013B20
:1014C00000F8013B00F024808B07F6D1830740F041
:1014D000208000BF103A07D330B4B1E83810103A7A
:1014E000A0E83810F9D230BC530724BFB1E8081087
:1014F000A0E8081044BF51F8043B40F8043BD20771
:1015000024BF31F8022B20F8022B44BF0B78037064
:101510007047083A07D3B1E80810083A40F8043B8E
:1015200040F804CBF7D25307E4E7000000B9704756
:1015300038B5A0F108042068082833D310F0070F4D
:1015400030D1C046C0461848416809B18C4203D228
:101550006160446017E019464B680BB1A342FAD3AF
:101560000B68CD18AC421BD3A54204D12268D21817
:101570000A600C4607E04A681AB1236823449A427D
:101580000ED362604C60616851B12268A3188B422F
:1015900006D10023036008688018206048686060F6
:1015A000C046C04631BD0000280800201B4213D1B0
:1015B000094236D12AB18446B0FBF2F002FB10C2D8
:1015C000704700F0D7BCFCD30022002370470B000B
:1015D0000200002100207047904271EB030CF6D30B
:1015E00070B5B1FA81F4B3FA83F52C1BA340C4F1B2
:1015F000200532FA05F63343A2405FF00046E6408C
:1016000002E05B085FEA3202841A71EB030524BF33
:10161000204629467641F4D302000B003000002119
:1016200070BD012ACFD970B5140C20D0B1FA81F465
:10163000B2FA82F5C4F120046419B4F12006D6D3BD
:10164000B2405FF00044F440002502E052085FEA37
:101650003303C61A71EB020E24BF30467146644153
:101660006D41F3D302000B002000290070BD0C4631
:10167000B1FBF2F102FB11452D0445EA1045B5FB23
:10168000F2F402FB145580B240EA0545B5FBF2F0D6
:1016900002FB105240EA044070BD30B4436803F0CE
:1016A00000420121C3F313034360002B04BF03680E
:1016B000002B08D10DE00368DD0F45EA44044460C7
:1016C0005B000360491E4468E302F4D5C4F31303CE
:1016D000436043681A434260084630BC70470000CC
:1016E0004FF4001C1CEB410F94BF1CEB430F09E0AF
:1016F00041EA030C50EA4C0C52EA0C0C03D299421A
:1017000008BF9042704714BF8B428242704700006E
:101710004FF4001C1CEB410F94BF1CEB430F09E07E
:1017200041EA030C50EA4C0C52EA0C0C03D28B42F7
:1017300008BF8242704714BF994290427047000030
:1017400070B504460D466068C0F30A5040F2FF7160
:10175000884207D16068000304BF2068002817D0C2
:10176000022070BD20B92046FFF797FF012866DAF6
:10177000012D0FDB40F2FF71091A8D420AD3606818
:1017800000284CBF9FED2F0B9FED300B84ED000B1D
:10179000012070BD4142A942616806DA6FF31E5113
:1017A000401941EA0050606040E0401E63684519FE
:1017B000012205F1350062F31F53352801F0004185
:1017C000636003D361600020206070BD002015F1CC
:1017D0001F0F04DA206823600022203562606A420D
:1017E00012D0401E25688041C2F12003C0439D40B5
:1017F00045EAD07025686668D54006FA03F32B43A6
:1018000023606368D340636062680A43B0F1004FAD
:10181000626003D80DD12078C0070AD52068401C2B
:101820002060206828B96068401C60604FF0FF307D
:1018300070BD6068884204BF20680028F6D100208F
:1018400070BD00BF000000000000F0FF00000000BD
:101850000000F07FF446400D40EAC120490006D266
:1018600000F014F8004248BF6FF00040604700F0FD
:101870000DF84FF0004188428CBF08464042604757
:10188000400D40EAC120490080F00D8040F000404A
:10189000490DA1F58061491C05D4D1F11F0154BF48
:1018A000C840C01770474FF000007047010040F17A
:1018B0000980F446404200F005F851F000416047CD
:1018C000010000BF09D0B0FA80F18840C91CC1F501
:1018D0008461090501EBD02140057047F0B44FF059
:1018E000004591EA030F44BF6B4000F045BB00BFC9
:1018F000841A71EB030604D26E40001BB141121929
:1019000073414FF4001C1CEB410F34BF7CEB4306CA
:1019100084E00C0DA4EB1356362E7DDC012E43DC47
:1019200045EAC32343EA525312BFD20292025B0834
:10193000240545EAC12141EA5051D2EBC02099412A
:1019400025D407D1B0FA80F610FA06F164D0002051
:10195000203608E0B1FA81F6B140C6F1200220FA43
:1019600002F21143B0404FEAF474B4EB465434F041
:1019700001064FEA74040AD8D6F50016760D04F075
:101980000044F04061FA06F25040F1404840C00A7D
:1019900040EA415021F0004128BF5FEA500550F174
:1019A000000044EBD12137E045EAC323DB0A45EAD6
:1019B000C121C90AB6F120050EDD42EA0242120C2D
:1019C000C5F1200603FA06F6EB4042EA06056D4231
:1019D000984161F100010DE062FA06F5F2405540D0
:1019E00063FA06FC82EA0C02F3405A406D429041D1
:1019F00061EB030111F4801F05D1641E620502D062
:101A00006D004041494121F48011430875F10043C4
:101A100050F1000041EB0451F0BC70471CEB410F4A
:101A200015D223F0004352EA43060BD04FEA4C0C88
:101A3000BCEB410F04D80C0D661E342EB7DDEBE76E
:101A4000801A994150EA410608BF0021E4E708BF27
:101A50001CEB430F28BF6FF00001DDE7B0B581EA52
:101A6000030C0CF0004C40F2FF7515EA11541DBF39
:101A700015EA1357AC42AF4239E0E41923EA455363
:101A800043F48013C90241F0004141EA505EC702AD
:101A90001100A7FB020200284FF00000EEFB01201E
:101AA0004FF00001E3FB072118BF42F0010240188C
:101AB00000214941E3FB0E01A4F580640F0302D22B
:101AC00052004041494154F101046CDD470872F174
:101AD000004250F1000051EB0451A1F580115CBFB0
:101AE00041EA0C01B0BD4CEA05510020B0BD05EA49
:101AF0001357AC4214BFAF4241E050EA410E1CBF45
:101B000052EA430E02E061460020B0BD24423C444C
:101B10001BD15FEA070EF6D0090302BF0146002081
:101B2000AEF1140EB1FA81F7AEEB070401FA07FE2D
:101B30000C37C7F1200100FA07F7C8404EEA000E43
:101B400023EA455343F48013A2E733F00043B3FA8A
:101B500083F704BFB2FA82FE77440B3FE41BB7F170
:101B6000200E2FBF02FA0EF3BB40C7F1200E22FA5F
:101B70000EFE38BF43EA0E03BA40641C82E750EA07
:101B8000410E14BF52EA430E6FF000014FF40017EC
:101B900017EB430F8ABF194617EB410FB5E74CEA25
:101BA00005510020B0BDD4F10104B4F120070FDAD3
:101BB000C4F12007520828BF42F0010210FA07F5CD
:101BC00001FA07F7E1BF2A43E0403843E1400FE064
:101BD000352C98DCC7F1200452EA400220FA07F2C3
:101BE00018BF42F0010231FA07F0A1400A43002178
:101BF00072F1004250F1000051EB0C01B0BD000049
:101C00002DE9F04140F2FF7581EA030C0CF0004C25
:101C100015EA11541DBF15EA1357AC42AF42E9E073
:101C2000BC41C1F31301C3F31303801A994143F478
:101C3000801304D2641E4000494180185941C902F2
:101C400041EA5051B1FBF3F603FB1611A2FB0675F6
:101C5000D7EBC020A94102D2761E80185941C90293
:101C600041EA5051B1FBF3FE03FB1E11A2FB0E75BE
:101C7000D7EBC020A94103D2AEF1010E8018594123
:101C8000890241EA9051760546EA8E2EB1FBF3F6C1
:101C900003FB1611A2FB0675D7EB8020A94102D2E7
:101CA000761E80185941C90241EA50514EEA060E8B
:101CB000B1FBF3F603FB1611A2FB0675D7EBC020B0
:101CC000A94102D2761E80185941C90241EA5051F9
:101CD000B1FBF3F703FB1711A2FB0735D3EBC020D1
:101CE000A94167F100070CBF004247F0010766F306
:101CF000D5274FEA1E31B80814F5806414DDBD07FE
:101D000075F1004250EB0E5051EB045111F5801F5C
:101D10005CBF41EA0C01BDE8F0814CF07F6141F00D
:101D2000E0410020BDE8F081BD076D0840EA0E509B
:101D300041F48011D4F10104B4F120060ADAC4F1AF
:101D400020060200E04001FA06F3E1401843B240E9
:101D500015430EE0342C14DCC6F1200445EA40059E
:101D60006D0820FA06F2154321FA06F0A1400D4352
:101D7000002175F1004250F1000051EB0C01BDE86B
:101D8000F08100205FEA0C01BDE8F081CFB9921824
:101D90005B41B3FA83F704BFB2FA82F6BF190B3F77
:101DA000B7F120062FBF02FA06F3BB40C7F12006A9
:101DB00022FA06F638BF3343BA401CB1E419641E58
:101DC0002FE77F4231F00041B1FA81F404BFB0FA4D
:101DD00080F6A4190B3CB4F120062FBF00FA06F1DF
:101DE000A140C4F1200620FA06F638BF3143A040D6
:101DF0003C1B16E7AC421ABF05EA1357AF4214E08A
:101E000050EA41061CBF52EA4306BFE750EA4107C9
:101E1000304661461CBF41EA0551BDE8F08152EAF7
:101E2000430C08BFC143BDE8F08100204FF4001609
:101E300016EB410F98BF16EB430F08BF16EB410F8F
:101E400024BFC14305E016EB430F0CBF61464CEACB
:101E50000551BDE8F081000080B5134800F0F6F8A8
:101E60000FF24C020FF244010160426241600FF236
:101E70004402826381600FF24402C16001614161EA
:101E800081618162C16201634163C2630164416433
:101E900001BD10B5044800F0D9F80446206808B91F
:101EA000FFF7DAFF204610BD4400002000000000CC
:101EB0002E00000066616C73650000007472756529
:101EC0000000000091FBF2F303FB1211C0E90031A6
:101ED0007047000080B5DFF80C0000F0B7F88069AB
:101EE00002BD0000D400002030B430B90FF2480029
:101EF000D0E90045C2E900451BE00170012030BC7B
:101F0000704730B431B90FF23800D0E90045C3E969
:101F100000450EE01AB930BC6FF00100704708B1FF
:101F20000A7802800978481E804130BCC043C00F47
:101F30007047002030BC7047000000000000000027
:101F400000000000000000000749086808B10020F8
:101F500070470648C008C00008600549C908C900A4
:101F6000091A0160704700BF3408002047050020AF
:101F70004007002070470000841A71EB030603D26B
:101F8000001BB141121973414FF4001C1CEB410FAF
:101F900034BF7CEB430443E00C0DA4EB1356352E09
:101FA00050DC45EAC323DB0A45EAC121C912B6F178
:101FB00020050DDD63FA05F6EB4086EA03051242C3
:101FC00018BF45F00105C01851F100010CD213E013
:101FD00062FA06F5F2405540F3415A40B340F340EF
:101FE0005A408018594107D349085FEA30005FEA38
:101FF000350528BF45F0010501F58011420875F14E
:10200000004250F1000041EB0451F0BC4FF4001CC1
:102010001CEB410F38BF70470020090D09057047C0
:102020001CEB410F10D252EA43060BD0BCEB410F20
:1020300005D80C0DAB43661E342EB5DD02E0AB4374
:1020400080185941F0BC7047F0BC704770470000E1
:1020500010B50400002C01D10120DFE02068DFF87A
:10206000541788420FD02068DFF84C1788420AD0F6
:102070002068DFF84817884205D040F20B11DFF8DE
:10208000400700F06EFD6068002809D06068B0F578
:10209000827F05D04FF48671DFF8240700F061FDE0
:1020A000A06800280DD0A068B0F5806F09D0A068A6
:1020B000B0F5004F05D040F20D11DFF8040700F035
:1020C00050FDE068B0F5006F08D0E068002805D04A
:1020D0004FF48771DFF8E80600F043FDA069B0F522
:1020E000007F0CD0A069002809D0A069B0F5802F2E
:1020F00005D040F20F11DFF8C80600F032FDE069AC
:1021000000281AD0E069082817D0E069102814D0F8
:10211000E069182811D0E06920280ED0E06928284D
:102120000BD0E069302808D0E069382805D04FF49A
:102130008871DFF88C0600F014FD206A002808D0B2
:10214000206A802805D040F21111DFF8740600F0F3
:1021500008FD606A002808D0606A102805D04FF496
:102160008971DFF85C0600F0FCFC606A002817D17A
:102170002069002808D02069022805D040F21511F6
:10218000DFF83C0600F0EDFC6069002808D06069CB
:10219000012805D04FF48B71DFF8240600F0E1FC34
:1021A0000020A06294F85100002805D1002084F896
:1021B0005000200000F005FD022084F85100206846
:1021C000006830F04000216808606068A16808433A
:1021D000E16808432169084361690843A16911F472
:1021E00000710843E1690843216A0843A16A084372
:1021F00021680860A069000C10F00400616A0843BF
:10220000216848602068C06930F400602168C861B6
:1022100000206065012084F85100002010BD2DE9E8
:10222000F8430400894615001E0000275FF00008EF
:10223000A068002809D0A068B0F5004F05D04FF481
:10224000E171DFF87C0500F08CFC94F85000012867
:1022500001D10220CBE0012084F8500000F0DEFC28
:10226000070094F85100012802D002208046B6E011
:10227000B9F1000F02D0ADB2002D02D1012080468D
:10228000ADE0032084F8510000206065C4F8309070
:10229000A586E5860020A0630020A0870020E087B7
:1022A0000020606400202064A068B0F5004F05D1D4
:1022B0002068006850F48040216808602068006849
:1022C000400605D42068006850F04000216808608E
:1022D000E068B0F5006F2CD16068002802D0E08E75
:1022E000012808D1B9F800002168C86019F1020975
:1022F000E08E401EE086E08E002847D0206880688F
:10230000800709D5B9F800002168C86019F10209F1
:10231000E08E401EE086EEE7002E07D016F1010F9A
:10232000E9D000F07BFCC01BB042E4D30320804620
:1023300055E06068002802D0E08E012808D199F8A5
:1023400000002168087319F10109E08E401EE08643
:10235000E08E00281AD020688068800709D599F897
:1023600000002168087319F10109E08E401EE08623
:10237000EEE7002E07D016F1010FE9D000F04EFC79
:10238000C01BB042E4D30320804628E0009733000E
:1023900001220221200000F015FA002802D00320BB
:1023A00080461CE03A003100200000F05CFA002872
:1023B00004D0012080462020606510E0A06800283D
:1023C00008D1002000902068C068009020688068D4
:1023D00000900098606D002801D001208046012007
:1023E00084F85100002084F850004046C0B2BDE897
:1023F000F2832DE9F84304000D0016001F005FF082
:1024000000085FF000096068B0F5827F0ED1A06817
:1024100000280BD1042084F85100009733009BB2B0
:102420002A002900200000F0A0F89CE094F8500059
:10243000012801D1022096E0012084F8500000F02C
:10244000EDFB804694F85100012802D0022081461D
:1024500081E0002D02D0B6B2002E02D101208146CB
:1024600079E0042084F8510000206065A563A68708
:10247000E687002020630020A0860020E086002060
:10248000206400206064A068B0F5004F05D120688A
:10249000006830F4804021680860206800684006C9
:1024A00005D42068006850F0400021680860E068AA
:1024B00000281CD1E08F002836D020688068C00733
:1024C00007D52068007B28706D1CE08F401EE087D8
:1024D000F0E7002F08D017F1010FEBD000F09EFBC2
:1024E000B0EB0800B842E5D30320814633E0E08F2B
:1024F000002819D020688068C00707D52068C06808
:102500002880AD1CE08F401EE087F0E7002F08D048
:1025100017F1010FEBD000F081FBB0EB0800B842DF
:10252000E5D30320814616E06068B0F5827F0DD1C7
:10253000A068B0F5004F03D0A068B0F5806F05D15A
:102540002068006830F0400021680860606D002855
:1025500001D001208146012084F85100002084F838
:1025600050004846C0B2BDE8F2832DE9FE4F04009A
:102570008A4693461D000C9E002001900020029088
:1025800000275FF001085FF00009A068002805D06F
:1025900040F23631DFF8280200F0E3FA94F85000F8
:1025A000012801D1022003E1012084F8500000F04D
:1025B00035FB070094F85100019060680290019883
:1025C00001280CD00298B0F5827F05D1A0680028C0
:1025D00002D10198042802D002208146E0E0BAF13D
:1025E000000F05D0BBF1000F02D0ADB2002D02D11B
:1025F00001208146D4E094F85100012802D1052041
:1026000084F8510000206065C4F838B0E587A587DC
:10261000C4F830A0E586A586002020640020606410
:1026200020680068400605D42068006850F040002B
:1026300021680860E068B0F5006F46D16068002846
:1026400002D0E08E012808D1BAF800002168C860E5
:102650001AF1020AE08E401EE086E08E002802D1C8
:10266000E08F002878D0B8F1000F11D0E08E00285C
:102670000ED02068806880070AD5BAF8000021686B
:10268000C8601AF1020AE08E401EE08600208046F3
:10269000E08F00280ED020688068C0070AD5206827
:1026A000C068ABF800001BF1020BE08F401EE08712
:1026B0000120804616F1010FCFD000F0AFFAC01B09
:1026C000B042CAD3032081466AE06068002802D085
:1026D000E08E012808D19AF80000216808731AF1E9
:1026E000010AE08E401EE086E08E002802D1E08FD5
:1026F000002831D0B8F1000F11D0E08E00280ED0A4
:102700002068806880070AD59AF80000216808735D
:102710001AF1010AE08E401EE08600208046E08F1C
:1027200000280ED020688068C0070AD52068C068DD
:102730008BF800001BF1010BE08F401EE0870120A9
:10274000804616F1010FCFD000F068FAC01BB042EE
:10275000CAD30320814623E00097330001220221DF
:10276000200000F02FF8002802D00320814617E057
:102770003A003100200000F076F8002804D0012053
:102780008146202060650BE0A068002808D1002069
:1027900000902068C06800902068806800900098D1
:1027A000012084F85100002084F850004846C0B24F
:1027B000BDE8FE8F0030014000380040003C004082
:1027C000904C00082DE9F04104000D0016001F0098
:1027D000DDF81880206880682840A84201D10120D7
:1027E00000E00020B0423BD017F1010FF2D0002FE3
:1027F00005D000F013FAB0EB0800B842EAD3206825
:10280000406830F0E000216848606068B0F5827F81
:102810000DD1A068B0F5004F03D0A068B0F5806F6F
:1028200005D12068006830F0400021680860A06A87
:10283000B0F5005F0CD1206800684DF6FF710840CC
:10284000216808602068006850F400502168086022
:10285000012084F85100002084F85000032000E09B
:102860000020BDE8F08170B582B004000D001600B4
:1028700000962B00002280212000FFF7A3FF0028F4
:1028800005D0606D50F020006065032000E000205E
:1028900076BD0000F0B589B000F0C6F900F0CFF8C1
:1028A00000F0E2F900F05EF900F0C0FA03A89749E1
:1028B000D1E90023C0E9002391A000F013FB90A010
:1028C00000F010FB924800F00DFB924800F00AFB6C
:1028D000914800F007FB914800F004FB904800F09D
:1028E00001FB8C4800F0FEFA86A000F0FBFA00F035
:1028F00092FC00F018FE022000F01BFE00F006FE25
:102900000A2000F016FE02A9522000F0FDFA00286D
:10291000F6D19DF808009DF8091051EA0026B6B2DC
:102920003100804800F0DEFAB6B23000B0F5007F2A
:1029300015D0B0F5806F0ED0B0F5006F13D0B0F5A4
:10294000884F04D044F20341884210D013E0764807
:1029500000F0C8FA13E0754800F0C4FA0FE07448BC
:1029600000F0C0FA0BE0734800F0BCFA07E07248D0
:1029700000F0B8FA03E0714800F0B4FAC0E701A82B
:1029800000F0F0FA0500EDB2002D03D06C4800F025
:10299000A9FAB5E79DF8070000909DF806309DF86C
:1029A00005209DF80410674800F09CFA01A800F08B
:1029B0001CFB0500EDB2002D03D0634800F092FA35
:1029C0009EE70027FFB2402F2DDA01AB03AA3900A2
:1029D000C9B2602000F04BFB0500EDB2002D03D022
:1029E0005A4800F07FFA1CE005A93800C0B200F098
:1029F00089FB0500EDB2002D03D0554800F072FAB6
:102A00000FE000200400E4B2102C07DA05A8E4B2BD
:102A1000015D504800F066FA641CF4E73AA000F04B
:102A200061FA7F1CCEE71022002105A800F08EFD80
:102A300000F098FB4FF47A7000F07BFD60E700B582
:102A400093B0002000904448006850F08050424904
:102A500008604148006810F0805000900098002005
:102A600000903E48006850F480403C4908603B4874
:102A7000006810F48040009000980120069001202A
:102A8000079002200C905FF480000D9008200E90BB
:102A90004FF4A8700F90022010900420119006A807
:102AA00000F05EFD002801D000F05AF80F200190E0
:102AB00002200290002003904FF4A05004904FF4A5
:102AC00080500590052101A800F070FF002801D07A
:102AD00000F046F801F0C2F801F0C4F84FF47A7142
:102AE000B0FBF1F001F0F7F9042001F0FAF900224F
:102AF00000215FF0FF3001F0CDF913B000BD000000
:102B00000C0000000D0A00000A0D0000D45100085E
:102B1000BC510008D44D0008284E00087C4E000827
:102B2000D04E0008C8500008DC500008F0500008E3
:102B3000045100087C510008185100088C5100080D
:102B40002C510008C44F000840510008545100089F
:102B500068510008DC510008403802400070004015
:102B6000FEE7704780B52948294908604FF4827014
:102B70002749486000202649886000202449C86011
:102B80000220234908610120214948614FF4007067
:102B90001F49886118201E49C86100201C4908622D
:102BA00000201B4948620020194988620A20184900
:102BB000C8621748FFF74CFA002801D0FFF7D0FF92
:102BC00001BD10B586B004002068104988421BD1B1
:102BD000002000900F48006850F480500D490860B4
:102BE0000C48006810F4805000900098E02001909C
:102BF00002200290012003900320049005200590FC
:102C000001A9054801F09EF906B010BD0030014051
:102C1000400700204438024000000240014800689C
:102C2000704700BF3008002080B50E48006850F49F
:102C300000700C4908600B48006850F48060094936
:102C400008600848006850F4807006490860032056
:102C500001F00BF9002001F0DDFB01F0EFFB00209B
:102C600002BD0000003C024000B587B0002000908B
:102C70006648006850F010006449086063480068C6
:102C800010F0100000900098002000905F4800684D
:102C900050F004005D4908605C48006810F00400D2
:102CA00000900098002000905848006850F02000E4
:102CB000564908605548006810F0200000900098C0
:102CC000002000905148006850F080004F49086093
:102CD0004E48006810F0800000900098002000909E
:102CE0004A48006850F001004849086047480068B9
:102CF00010F0010000900098002000904348006808
:102D000050F00200414908604048006810F002009D
:102D100000900098002000903C48006850F040006F
:102D20003A4908603948006810F040000090009867
:102D3000002000903548006850F0080033490860D2
:102D40003248006810F00800009000984FF6FF70BD
:102D50000190032002900020039001A92C4801F06B
:102D6000F1F84FF6FF7001900320029000200390CD
:102D700001A9284801F0E6F84FF6FF700190032002
:102D800002900020039001A9234801F0DBF841F6EE
:102D900007100190032002900020039001A91F4812
:102DA00001F0D0F81820019001200290012003903A
:102DB0000320049001A9194801F0C4F84FF6E77008
:102DC0000190032002900020039001A9144801F013
:102DD000B9F84FF6FF700190032002900020039095
:102DE00001A9104801F0AEF84FF6FF7001900320E2
:102DF00002900020039001A90B4801F0A3F80122E2
:102E00001821064801F0B8FA07B000BD303802407A
:102E1000001002400008024000140240000002407E
:102E20000004024000180240000C024080B529480E
:102E3000294908605FF4E1302749486000202649AD
:102E4000886000202449C8600020234908610C20C4
:102E50002149486100202049886100201E49C8613D
:102E60001D4801F01BFB002801D0FFF779FE01BDD2
:102E700010B586B004002068164988421CD1002095
:102E800000901648006850F010001449086013487C
:102E9000006810F01000009000984FF4C06001909E
:102EA0000220029001200390032004900720059047
:102EB00001A90B4801F046F806B010BD11B581B06C
:102EC0000C004FF6FF73012201A9034801F08DFBAE
:102ED000019816BD00100140E80700204438024068
:102EE000000002400EB400B582B003A90091024672
:102EF0006B460121034878440A30FDF745F906BCCA
:102F00005DF810FBA121000070B588B004000D0031
:102F10000821082000F02BFA07210D2000F0EBF922
:102F20000321142000F012FA8DF8084001A8009047
:102F300002AB012202A90C2000F02AFA0600F6B228
:102F4000002E09D10198102806D19DF8080028709C
:102F50009DF80900687001E0022006003000C0B250
:102F600008B070BDF0B587B0040000270821082024
:102F700000F0FDF900210D2000F0BDF980210E20A8
:102F800000F0F5F993208DF8080020208DF8090055
:102F900001A8009002AB022202A90C2000F0F8F96F
:102FA0000500EDB2002D18D100200600F6B2042E67
:102FB0000ADA02A8F6B2805DF6B2A05502A8F6B20F
:102FC000805D4740761CF1E7380002A9F6B2895DC2
:102FD000C0B2884201D00220050080210E2000F0FE
:102FE000B5F92800C0B207B0F0BD70B588B00400D4
:102FF00093208DF8080070208DF8090000208DF8CE
:103000000E0000200600F6B2042E0EDAF6B2A05D25
:1030100002A9F6B2314488709DF80E00F6B2A15DA7
:1030200048408DF80E00761CEDE70DF10F020721E8
:1030300002A800F0B0F80821082000F098F901A8D3
:10304000009002AB092202A90C2000F0A1F90500B2
:10305000EDB2002D05D10198182802D100200500FD
:1030600001E0022005002800C0B208B070BD2DE9C3
:10307000F04387B004000D0016001F008DF80840D3
:103080008DF80950002081465FFA89F9B9F1060FE1
:103090000BDA5FFA89F916F8090002A95FFA89F9D3
:1030A0004944887019F10109EEE7002081465FFA72
:1030B00089F9B9F1060F0BDA5FFA89F917F80900F7
:1030C00002A95FFA89F94944087219F10109EEE78A
:1030D00001A8009002AB0C2202A90E2000F058F9C2
:1030E00080465FFA88F8B8F1000F04D1082000F09C
:1030F000D4F8000701D4022080464046C0B207B091
:10310000BDE8F083F0B587B004000D0030208DF8E5
:1031100008008DF809400DF10A02022102A800F012
:103120003AF801A8009002AB042202A90C2000F09A
:103130002FF90600F6B2002E0ED1019890280BD17F
:1031400000200700FFB2102F08DA02A8FFB2C05D0E
:10315000FFB2E8557F1CF5E7022006003000C0B240
:1031600007B0F0BD00B587B050208DF808000020F2
:103170008DF809000DF10A02022102A800F00BF8F7
:1031800001A8009002AB042202A90C2000F000F973
:10319000002007B000BD2DE9F04104000D0016002D
:1031A0000421052000F0E3F80021012000F0A3F83D
:1031B00080210A2000F0CAF80020804640462900FD
:1031C000C0B2C9B2884209D25FFA88F814F8081070
:1031D000092000F090F818F10108EFE70321012021
:1031E00000F089F8FF208046052000F056F807001F
:1031F000B8F101085FFA88F8B8F1000F01D078073C
:10320000F2D5222000F049F83070212000F045F876
:103210007070BDE8F08180B501220821494801F0B5
:10322000ABF8012000F085F900220821454801F0A3
:10323000A3F83C2000F07DF901220821414801F06B
:103240009BF8012000F075F90F21012000F053F8E0
:10325000022000F06EF93D21112000F04CF81E21F3
:103260002D2000F048F800212C2000F044F88D219A
:103270002A2000F040F83E212B2000F03CF84021AD
:10328000152000F038F88021332000F070F840213C
:10329000152000F030F8002002BD10B582B0040007
:1032A00000208DF80000600050F080008DF80100D3
:1032B000012000F03EF900221021224801F05CF8C4
:1032C0004FF6FF7301220DF101011F48FEF7A7FF22
:1032D0000028F5D14FF6FF73012269461A48FFF71F
:1032E00088F80028F6D101221021164801F044F890
:1032F0009DF8000016BD70B582B004000D000020DE
:10330000ADF80000600010F07E0006008DF800604F
:103310008DF80150012000F00CF90022102109481D
:1033200001F02AF84FF6FF73022269460648FEF7BD
:1033300076FF0028F6D101221021024801F01CF886
:1033400073BD0000000002404007002070B504007B
:103350000D0000262000C0B2FFF79FFF060055EACF
:103360000601C9B22000C0B2FFF7C5FF70BD70B53D
:1033700004000D0000262000C0B2FFF78EFF0600FB
:1033800036EA0501C9B22000C0B2FFF7B4FF70BD34
:103390002DE9F74F04009B460C9D022600275FF0A5
:1033A0000008E4B220000C2806D00E2809D1122013
:1033B00007001020804604E0772007003020804678
:1033C000FFE757F08001C9B20220FFF794FF802188
:1033D0000420FFF7CCFF00210120FFF78CFF8021A4
:1033E0000A20FFF7B3FF002082469DF808008245BF
:1033F00008D2019810F80A100920FFF77CFF1AF193
:10340000010AF2E72100C9B20120FFF774FFE4B21C
:103410000C2C03D180210D20FFF798FF4FF448704A
:1034200082460420FFF739FF8146BAF1010ABAF15A
:10343000000F07D05FEAC97004D44846C0B210EA52
:10344000080FEED080210D20FFF791FFBAF1000F99
:1034500050D00620FFF721FF1B21084248D1002051
:1034600006005FFA89F9FFB217EA0900C00701D523
:1034700001200600E4B20C2C3CD10A20FFF70DFF1E
:1034800081460C20FFF709FF10F007008DF80000BF
:103490009DF8000000280AD05FFA89F9B9F101000F
:1034A000C0009DF8001050FA81F0286004E05FFA37
:1034B00089F95FEAC90028605FFA89F9B9F1000F5C
:1034C00001D1012081465FFA89F9B9F1130F01DBBF
:1034D00012208146002082465FFA89F9CA4509D246
:1034E0000920FFF7DAFE0BF80A001AF1010AF3E7E8
:1034F0000220060080210C20FFF728FF0021012078
:10350000FFF7F9FE3000C0B2BDE8FE8F10B5142001
:10351000FFF7C3FE04000320044203D1032114205B
:10352000FFF714FF10BD80B503211420FFF71FFF24
:1035300001BD11B581B00024FFF770FB0400FFF757
:103540006DFB001B01998842F9D313BD10B50446E9
:1035500010460A460146204601F0C2FA204610BD38
:1035600070B582B0040000252068102804D3F5212E
:10357000DFF80404FFF7F5FA2078C0074FD560683C
:1035800000280AD06068012807D06068052804D0A8
:10359000FA21DFF8E403FFF7E4FADFF8E00300685C
:1035A00010F00C0004280BD0DFF8D003006810F0F6
:1035B0000C0008280ED1DFF8C8030068400209D5C6
:1035C000DFF8C0030068800329D56068002826D191
:1035D0000120D0E16068DFF8B0130870606800284F
:1035E0000ED0FFF71BFB0500DFF89803006880038F
:1035F00015D4FFF713FB401B6528F5D30320BAE170
:10360000FFF70CFB0500DFF87C030068800306D59C
:10361000FFF704FB401B6528F5D30320ABE12078BE
:10362000800771D5E068002808D0E068012805D03F
:103630004FF49671DFF84003FFF793FA20692028D2
:1036400005D340F22D11DFF83003FFF78AFADFF8D7
:103650002C03006810F00C0F0AD0DFF8200300687C
:1036600010F00C0008281BD1C5480068400217D490
:10367000C4480068800704D5E068012801D0012013
:1036800079E1C04800685FF0F851B1FA81F130F09B
:10369000F800226912FA01F10843BA49086033E0E0
:1036A000E06800281FD00120B8490860FFF7B6FA8B
:1036B0000500B4480068800706D4FFF7AFFA401B46
:1036C0000328F6D3032056E1AE4800685FF0F851B6
:1036D000B1FA81F130F0F800226912FA01F10843E1
:1036E000A849086010E00020A8490860FFF796FA92
:1036F0000500A4480068800706D5FFF78FFA401B35
:103700000328F6D3032036E1207800072FD560691F
:10371000002807D06069012804D040F26D11964856
:10372000FFF71FFA6069002810D00120984908604F
:10373000FFF774FA050097480068800717D4FFF771
:103740006DFA401B0328F6D3032014E100209049B2
:103750000860FFF763FA05008E480068800706D509
:10376000FFF75CFA401B0328F6D3032003E120781F
:10377000400755D5A06800280AD0A068012807D0C6
:10378000A068052804D040F297117B48FFF7E9F9BB
:10379000002000908048006850F080507E4908600A
:1037A0007D48006810F08050009000987B480068C9
:1037B00050F4807079490860FFF730FA05007748C7
:1037C0000068C00506D4FFF729FA401B0328F6D38A
:1037D0000320D0E0A06872490870A06800280FD0CC
:1037E000FFF71CFA05006E480068800718D4FFF741
:1037F00015FA401B41F289318842F4D30320BAE024
:10380000FFF70CFA050066480068800708D5FFF747
:1038100005FA401B41F289318842F4D30320AAE023
:10382000A06900280AD0A069012807D0A069022851
:1038300004D04FF4E6715048FFF793F9A0690028CF
:1038400000F098804D48006810F00C00082800F047
:103850008F80A06902287AD1E069002808D0E06949
:10386000B0F5800F04D040F2D5114348FFF779F945
:10387000206A402804D34FF4EB713F48FFF771F9F9
:10388000606A322803D3606AB0F5D87F04D940F269
:10389000D7113948FFF765F9A06A02280DD0A06A50
:1038A00004280AD0A06A062807D0A06A082804D0F5
:1038B0004FF4EC713048FFF754F9E06A042802D362
:1038C000E06A102804D340F2D9112B48FFF749F9D8
:1038D000002034490860FFF7A1F905002948006875
:1038E000800106D5FFF79AF9401B0328F6D3032081
:1038F00041E02D48B0FA80F24FF44040B0FA80F039
:10390000F021B1FA81F1E369266A3343666A16FA57
:1039100002F21A43A36A5B085B1E13FA00F010431D
:10392000E26A12FA01F108431549086001201D49B5
:103930000860FFF773F9050012480068800119D488
:10394000FFF76CF9401B0328F6D3032013E0002097
:1039500014490860FFF762F905000A480068800111
:1039600008D5FFF75BF9401B0328F6D3032002E0DC
:10397000012000E0002076BD244C000808380240F9
:10398000043802400038024002380240000047423A
:10399000800E4742743802404038024000700040B8
:1039A00070380240600047420000FE0370B504001A
:1039B0000D0000262068002802D02068102805D3BA
:1039C00040F23721DFF8F802FFF7CBF8002D13D0D3
:1039D000012D11D0022D0FD0032D0DD0042D0BD0B1
:1039E000052D09D0062D07D0072D05D04FF40E71F7
:1039F000DFF8CC02FFF7B5F8DFF8C802006810F076
:103A00000F00A8420BD2DFF8BC020570DFF8B40249
:103A1000006810F00F00A84201D001201DE12078BD
:103A200080072AD5A06800281DD0A06880281AD059
:103A3000A068902817D0A068A02814D0A068B0284B
:103A400011D0A068C0280ED0A068D0280BD0A068E4
:103A5000E02808D0A068F02805D040F24F21DFF818
:103A60006002FFF77EF8DFF86002006830F0F000D7
:103A7000A1680843DFF8501208602078C00740F1C1
:103A80008180606800280ED0606801280BD06068D3
:103A9000022808D06068032805D040F25621DFF8DC
:103AA0002002FFF75EF86068012806D1DFF81C02EB
:103AB0000068800315D40120CFE06068022802D09E
:103AC0006068032806D1DFF804020068800108D48A
:103AD0000120C2E0DFF8F4010068800701D4012072
:103AE000BBE0DFF8E40100688008800061680843FB
:103AF000DFF8D4110860FFF791F80600606801282C
:103B00000ED17148006810F00C0004283AD0FFF77D
:103B100085F8801B41F289318842F2D303209CE072
:103B2000606802280ED16848006810F00C00082870
:103B300028D0FFF773F8801B41F289318842F2D315
:103B400003208AE0606803280ED15F48006810F007
:103B50000C000C2816D0FFF761F8801B41F2893168
:103B60008842F2D3032078E05748006810F00C0F29
:103B700008D0FFF753F8801B41F289318842F3D314
:103B800003206AE04F48006810F00F00854209D218
:103B90004C4805704B48006810F00F00A84201D057
:103BA00001205AE0207840071FD5E068002814D093
:103BB000E068B0F5805F10D0E068B0F5A05F0CD091
:103BC000E068B0F5C05F08D0E068B0F5E05F04D011
:103BD0004FF42D713A48FEF7C4FF3B48006830F4BB
:103BE000E050E1680843384908602078000720D594
:103BF0002069002814D02069B0F5805F10D02069BA
:103C0000B0F5A05F0CD02069B0F5C05F08D0206986
:103C1000B0F5E05F04D040F2BB212948FEF7A1FFD8
:103C20002948006830F46040216950EAC100264903
:103C3000086000F057F824490968254A11F0F0019E
:103C40005FF07063B3FA83F3D940515CC8402149F7
:103C50000860002000F0DEFB002070BD01201E493E
:103C6000086070471B480068704780B5FFF7FAFF8F
:103C700015490968164A11F4E0515FF46013B3FA6C
:103C800083F3D940515CC84002BD80B5FFF7EAFF1D
:103C90000D4909680E4A11F460415FF4E023B3FA5C
:103CA00083F3D940515CC84002BD80B50B48006821
:103CB000000604D500F047FF80200949087001BDC7
:103CC000244C0008003C0240083802400038024002
:103CD0009C510008000000204C0047420C38024074
:103CE0000E38024070B40021002200230020264C30
:103CF000246814F00C04002C04D0042C05D0082CEB
:103D000006D03DE0214C20003CE0214C200039E071
:103D1000204C246814F03F0421001E4C24686402E7
:103D20000FD51C4C24681A4DB5FBF1F547F6C0764B
:103D30003440194EB6FA86F6F44004FB05F422002E
:103D40000EE0144C2468114DB5FBF1F547F6C07632
:103D50003440114EB6FA86F6F44004FB05F4220016
:103D60000C4C246814F440344FF44045B5FA85F502
:103D7000EC40641C64002300B2FBF3F4200001E07B
:103D8000024C200070BC7047083802400024F40048
:103D900000127A00043802400000FE0310F007020F
:103DA000DFF874311B6819004FF6FF031940DFF884
:103DB0006C3153EA02231943DFF85C311960704714
:103DC000DFF854010068C0F30220704710B440B21D
:103DD000002809D50A01DFF8483140B210F00F047D
:103DE000234403F8042C04E00A01DFF8383140B220
:103DF0001A5410BC704770B4030013F00704D4F1D8
:103E00000706052E01D3042001E0D4F10700261D8A
:103E1000072E01D2002500E0E51E012616FA00F06B
:103E2000401E0840A8400121A940491E11400843F6
:103E300070BC704710B50400601EB0F1807F01D3E4
:103E4000012011E0601EDFF8E01008600F215FF034
:103E5000FF30FFF7BBFF0020DFF8D010086007201D
:103E6000DFF8CC100860002010BD10B50400072C4E
:103E70000CD0062C0AD0052C08D0042C06D0032C1C
:103E800004D0A421DFF8AC00FEF76BFE2000FFF7A2
:103E900085FF10BDF8B504000D0016000027102E98
:103EA00004D3BC21DFF88C00FEF75BFE102D04D399
:103EB000BD21DFF88000FEF754FEFFF781FF070009
:103EC000320029003800FFF796FF0100200040B2C1
:103ED000FFF77CFFF1BD10B504002000FFF7AAFF3B
:103EE00010BD10B50400042C06D0002C04D040F204
:103EF000B3111048FEF735FE042C06D10C480068BB
:103F000050F004000A49086005E00948006830F0F4
:103F100004000749086010BD0CED00E00000FA0540
:103F200018ED00E000E400E014E000E018E000E03C
:103F300010E000E0484B000880B500F001F801BD3A
:103F4000704700002DE9F84304000D0000275FF0E2
:103F500000085FF00009DFF86404844224D0DFF831
:103F60006004844220D0DFF85C0484421CD0DFF877
:103F70005804844218D0DFF85404844214D0DFF887
:103F80005004844210D0DFF84C0484420CD0DFF897
:103F90004804844208D0DFF84404844204D0C52198
:103FA000DFF83C04FEF7DDFD2868000404D1C621DB
:103FB000DFF82C04FEF7D5FD6868002831D068686A
:103FC00001282ED0686811282BD06868022828D0D4
:103FD0006868122825D06868DFF80814884220D065
:103FE0006868DFF8041488421BD06868DFF8FC13A7
:103FF000884216D06868DFF8F813884211D06868E4
:10400000DFF8F01388420CD06868DFF8EC138842C0
:1040100007D06868032804D0C721DFF8C403FEF77F
:10402000A0FDA86800280AD0A868012807D0A868C1
:10403000022804D0C821DFF8A803FEF792FD002073
:104040000600102E80F096810120B04007002868FD
:1040500038408046B84540F08B816868022803D01C
:104060006868122840F08B80286900286DD0286984
:1040700009286AD02869002867D02869002864D0F8
:104080002869002861D0286900285ED028690128A5
:104090005BD02869012858D02869022855D02869A2
:1040A000022852D0286902284FD0286903284CD012
:1040B0002869042849D02869042846D0286904289A
:1040C00043D02869052840D0286905283DD02869B3
:1040D00009283AD02869062837D02869092834D019
:1040E0002869072831D0286907282ED02869072891
:1040F0002BD02869082828D02869082825D02869C5
:10410000082822D0286909281FD0286909281CD02E
:1041100028690A2819D028690A2816D028690B2886
:1041200013D028690C2810D028690C280DD02869D4
:104130000D280AD028690C2807D028690F2804D038
:10414000D921DFF89C02FEF70CFDF00804EB80009B
:10415000006A81460F2016F00701C9B28900884025
:1041600039EA0009286916F00701C9B289008840B8
:1041700050EA0909F00804EB8000C0F8209020689C
:10418000814603203100C9B24900884039EA00095C
:10419000287910F003003100C9B24900884050EA84
:1041A0000909C4F800906868012808D068680228E6
:1041B00005D06868112802D06868122830D1E868F4
:1041C00000280DD0E86801280AD0E868022807D046
:1041D000E868032804D0EC21DFF80402FEF7C1FCF4
:1041E000A068814603203100C9B24900884039EAFD
:1041F0000009E8683100C9B24900884050EA09095D
:10420000C4F80890606881460120B04039EA00098E
:104210006868C0F30010B04050EA0909C4F804907F
:10422000E068814603203100C9B24900884039EA7C
:104230000009A8683100C9B24900884050EA09095C
:10424000C4F80C906868C00040F192800020009093
:10425000DFF8A801006850F48040DFF8A011086082
:10426000DFF89801006810F4804000900098DFF8B3
:104270009001B10850F8210081460F2016F003018B
:10428000C9B28900884039EA0009DFF83001844268
:1042900001D100202AE0DFF82801844201D1012069
:1042A00024E0DFF82001844201D102201EE0DFF883
:1042B0001801844201D1032018E0DFF81001844284
:1042C00001D1042012E0DFF80801844201D1052069
:1042D0000CE0DFF80001844201D1062006E0DFF89F
:1042E000F800844201D1072000E00820C0B216F097
:1042F0000301C9B28900884050EA0909DFF80001CA
:10430000B10840F82190DFF8FC000068814639EAE6
:1043100008096868C00301D558EA09093948C0F896
:10432000009039480068814639EA080968688003C6
:1043300001D558EA09093448C0F8009033480068AC
:10434000814639EA08096868C00201D558EA0909B6
:104350002E48C0F800902E480068814639EA0809C6
:104360006868800201D558EA09092948C0F8009018
:10437000761C66E6BDE8F18370B504000D001600FA
:10438000ADB2002D04D140F2B1111548FEF7E9FBA2
:10439000F6B2002E07D0F6B2012E04D04FF4D97138
:1043A0000F48FEF7DEFBF6B2002E02D0ADB2A561DB
:1043B00002E0ADB22804A06170BD00000000024020
:1043C0000004024000080240000C024000100240BD
:1043D0000014024000180240001C0240002002406D
:1043E000B84B00080000111000002110000031102F
:1043F0000000121000002210000032104438024069
:1044000008380140003C0140043C0140083C0140A8
:104410000C3C014010B50400074800684FF47A7165
:10442000B0FBF1F0FFF757FD002221005FF0FF30F5
:10443000FFF730FD002010BD0000002080B50320F4
:10444000FFF713FD002200217FF00B00FFF722FD94
:10445000002200217FF00A00FFF71CFD002200214E
:104460007FF00900FFF716FD002200217FF0040015
:10447000FFF710FD002200217FF00300FFF70AFD87
:10448000002200217FF00100FFF704FD002200213F
:104490005FF0FF30FFF7FEFC01BD000010B5040027
:1044A000002C01D101209FE0A06900282DD02068B8
:1044B000DFF81412884213D02068DFF81012884207
:1044C0000ED02068DFF80812884209D02068DFF893
:1044D0000412884204D0FE21DFF80402FEF741FBFB
:1044E000A069002835D0A069B0F5807F31D0A069DF
:1044F000B0F5007F2DD0A069B0F5407F29D0FF2115
:10450000DFF8DC01FEF72DFB23E02068DFF8B811AF
:1045100088421ED02068DFF8B411884219D0206884
:10452000DFF8AC11884214D02068DFF8AC11884263
:104530000FD02068DFF8A41188420AD02068DFF885
:104540009411884205D040F20311DFF89401FEF780
:1045500008FBA068002809D0A068B0F5805F05D0EE
:1045600040F20511DFF87801FEF7FBFAE069002858
:1045700009D0E069B0F5004F05D04FF48371DFF842
:104580006001FEF7EEFA94F83900002805D100200A
:1045900084F838002000FEF76BFC242084F83900F2
:1045A0002068C06830F400502168C860200000F026
:1045B000D1F82068006930F49040216808612068D3
:1045C000406930F02A00216848612068C06850F4D2
:1045D00000502168C8600020E063202084F8390082
:1045E000202084F83A00002010BD2DE9F843040093
:1045F0000D0016001F005FF0000994F83900202814
:104600005FD1002D02D0B6B2002E01D1012059E0B9
:1046100094F83800012801D1022053E0012084F8E9
:1046200038000020E063212084F83900FEF7F6FA14
:104630008146A684E684E08C00282FD0E08C401EC2
:10464000E084A068B0F5805F18D100974B46002247
:104650008021200000F046F8002801D0032031E03E
:10466000A846B8F80000C005C00D21684860206960
:10467000002801D1AD1CDEE76D1CDCE700974B463E
:1046800000228021200000F02DF8002801D0032016
:1046900018E02878216848606D1CCCE700974B46ED
:1046A00000224021200000F01DF8002801D0032046
:1046B00008E0202084F83900002084F83800002029
:1046C00000E00220BDE8F2830010014000440040F9
:1046D0000048004000140140004C004000500040E1
:1046E000FC4C00082DE9F04104000D0016001F00ED
:1046F000DDF81880206800682840A84201D1012018
:1047000000E00020F6B2B04221D118F1010FF1D043
:10471000B8F1000F04D0FEF781FAC01B8045E9D242
:104720002068C06830F4D0702168C8602068406993
:104730004008400021684861202084F8390020208A
:1047400084F83A00002084F83800032000E00020BC
:10475000BDE8F0812DE9F843040000256068DE49DA
:10476000884204D340F24C71D848FEF7FAF9E06869
:10477000002808D0E068B0F5005F04D040F24D7129
:10478000D248FEF7EEF9206900280CD02069B0F578
:10479000806F08D02069B0F5C06F04D040F24E7130
:1047A000CA48FEF7DEF960694FF6F371084202D19C
:1047B0006069002804D140F24F71C448FEF7D1F976
:1047C00020680069050035F44055E068054320681D
:1047D00005612068C0680500C0480540A0682169DF
:1047E000084361690843E169084305432068C560DF
:1047F00020684069050035F44075A06905432068CC
:104800004561E069B0F5004F40F0B0802068B049E4
:10481000884203D02068AF49884253D1FFF735FA68
:104820008146FFF732FA8046FFF72FFA0700FFF7BD
:104830002CFA0600FFF729FA192101FB09F1626839
:104840005200B1FBF2F16422B1FBF2F1192202FB3A
:1048500008F263685B00B2FBF3F2192303FB07F372
:1048600067687F00B3FBF7F36427B3FBF7F36427B4
:1048700007FB1322D20032326423B2FBF3F2520060
:1048800012F4F87212EB0111192202FB06F26368AE
:104890005B00B2FBF3F21923584363685B00B0FB83
:1048A000F3F06423B0FBF3F0642303FB1020C0009B
:1048B00032306422B0FBF2F010F00700401821689B
:1048C000886000E1FFF7D1F98146FFF7CEF9804615
:1048D000FFF7CBF90700FFF7C8F90600FFF7C5F9A6
:1048E000192101FB09F162685200B1FBF2F1642267
:1048F000B1FBF2F1192202FB08F263685B00B2FB24
:10490000F3F2192303FB07F367687F00B3FBF7F3A8
:104910006427B3FBF7F3642707FB1322D20032327C
:104920006423B2FBF3F2520012F4F87212EB01119D
:10493000192202FB06F263685B00B2FBF3F2192353
:10494000584363685B00B0FBF3F06423B0FBF3F003
:10495000642303FB1020C00032306422B0FBF2F06D
:1049600010F00700401821688860ACE020685849C2
:10497000884203D020685749884252D1FFF785F911
:104980008146FFF782F98046FFF77FF90700FFF7BE
:104990007CF90600FFF779F9192101FB09F162683A
:1049A0009200B1FBF2F16422B1FBF2F1192202FB99
:1049B00008F263689B00B2FBF3F2192303FB07F3D1
:1049C0006768BF00B3FBF7F36427B3FBF7F3642713
:1049D00007FB1322120132326423B2FBF3F212F00E
:1049E000F00212EB0111192202FB06F263689B0030
:1049F000B2FBF3F21923584363689B00B0FBF3F05A
:104A00006423B0FBF3F0642303FB10200001323079
:104A10006422B0FBF2F010F00F00401821688860AB
:104A200051E0FFF722F98146FFF71FF98046FFF7B3
:104A30001CF90700FFF719F90600FFF716F919210D
:104A400001FB09F162689200B1FBF2F16422B1FB53
:104A5000F2F1192202FB08F263689B00B2FBF3F249
:104A6000192303FB07F36768BF00B3FBF7F3642761
:104A7000B3FBF7F3642707FB1322120132326423DE
:104A8000B2FBF3F212F0F00212EB0111192202FB59
:104A900006F263689B00B2FBF3F219235843636884
:104AA0009B00B0FBF3F06423B0FBF3F0642303FB43
:104AB0001020000132306422B0FBF2F010F00F0041
:104AC000401821688860BDE8F1830000FC4C0008B4
:104AD0000010014000140140A137A000F369FFFF5E
:104AE00062F30F2262F31F42401810F0030308D054
:104AF000C91A1FD3DB0748BF00F8012D28BF20F8D3
:104B0000022D130030B414461546103928BF20E991
:104B10003C00FAD8490728BF20E90C0048BF40F8FC
:104B2000042D890028BF20F8022D48BF00F8012D70
:104B300030BC7047C91818BF00F8012DCB0728BF3B
:104B400000F8012D70477047443A5C53544D696337
:104B5000726F656C656374726F6E6963735C5354D6
:104B60004D3332437562655C574F524B5C53544D25
:104B70003332463430375C52433532325C447269EA
:104B8000766572735C53544D3332463478785F489F
:104B9000414C5F4472697665725C5372635C7374F6
:104BA0006D3332663478785F68616C5F636F7274FE
:104BB00065782E6300000000443A5C53544D6963ED
:104BC000726F656C656374726F6E6963735C535466
:104BD0004D3332437562655C574F524B5C53544DB5
:104BE0003332463430375C52433532325C4472697A
:104BF000766572735C53544D3332463478785F482F
:104C0000414C5F4472697665725C5372635C737485
:104C10006D3332663478785F68616C5F6770696F96
:104C20002E630000443A5C53544D6963726F656CA7
:104C3000656374726F6E6963735C53544D333243B2
:104C40007562655C574F524B5C53544D333246345A
:104C500030375C52433532325C4472697665727328
:104C60005C53544D3332463478785F48414C5F444E
:104C700072697665725C5372635C73746D3332660D
:104C80003478785F68616C5F7263632E6300000044
:104C9000443A5C53544D6963726F656C656374721A
:104CA0006F6E6963735C53544D3332437562655C58
:104CB000574F524B5C53544D3332463430375C526D
:104CC000433532325C447269766572735C53544D7D
:104CD0003332463478785F48414C5F447269766578
:104CE000725C5372635C73746D3332663478785FD0
:104CF00068616C5F7370692E63000000443A5C5316
:104D0000544D6963726F656C656374726F6E69632D
:104D1000735C53544D3332437562655C574F524B4D
:104D20005C53544D3332463430375C524335323263
:104D30005C447269766572735C53544D3332463409
:104D400078785F48414C5F4472697665725C537253
:104D5000635C73746D3332663478785F68616C5F5E
:104D6000756172742E6300001248006850F4700080
:104D7000104908601048006850F001000E490860B2
:104D800000200E4908600C4800680D4908400A4997
:104D900008600C480C4908600748006830F480201F
:104DA000054908600020094908605FF00060084973
:104DB0000860704788ED00E0003802400838024083
:104DC000FFFFF6FE10300024043802400C38024089
:104DD00008ED00E00D0A2A2A2A2A2A2A2A2A2A2A43
:104DE0002A2A2A2A2A2A2A2A2A2A2A2A2A2A2A2A23
:104DF0002A2A2A2A2A2A2A2A2A2A2A2A2A2A2A2A13
:104E00002A2A2A2A2A2A2A2A2A2A2A2A2A2A2A2A02
:104E10002A2A2A2A2A2A2A2A2A2A2A2A2A2A2A2AF2
:104E20002A2A2A2A2A0000000D0A2A2A2A2A2A2A9D
:104E30002A2A2A2A2A2A2A2A2A2A2A2A2A2A2A2AD2
:104E40002A2A20436F707972696768742032303083
:104E5000392D323031322C2056696577546F6F6CA2
:104E6000202A2A2A2A2A2A2A2A2A2A2A2A2A2A2AAC
:104E70002A2A2A2A2A2A2A2A2A0000000D0A2A2A4D
:104E80002A2A2A2A2A2A2A2A2A2A2A2A2A2A2A2A82
:104E90002A2A2A2A2A2A2A20687474703A2F2F77FD
:104EA00077772E76696577746F6F6C2E636F6D2FD1
:104EB000626273202A2A2A2A2A2A2A2A2A2A2A2AA3
:104EC0002A2A2A2A2A2A2A2A2A2A2A2A2A000000C0
:104ED0000D0A2A2A2A2A2A2A2A2A2A2A2A2A2A2A6F
:104EE0002A2A2A2A2A2A2A2A2A2A2A2A2A2A2A202C
:104EF000416C6C20526967687473205265736572E7
:104F0000766564202A2A2A2A2A2A2A2A2A2A2A2A4A
:104F10002A2A2A2A2A2A2A2A2A2A2A2A2A2A2A2AF1
:104F20002A00000019E050F8041BCB0744BFA9F188
:104F300001035918121F0023042A41F8043BF9D237
:104F40005FEA827C0B4604D54FF0000CA1F800C04C
:104F50009B1CD10744BF0021197050F8042B002A74
:104F6000E1D1704730B5016842688468014401EBC3
:104F70005203D20748BF4C44994201D10C3030BD96
:104F800011F9012B11F8015B002A04F8015B02D52D
:104F9000521CF9D1F0E7521EF4D5EDE710B50749E0
:104FA00079441831064C7C44163404E00A68081D24
:104FB000114488470146A142F8D110BD8400000089
:104FC000A000000053657269616C204E756D6265CA
:104FD000723A253032582530325825303258253033
:104FE00032580A0D0000000080B5FEF75EFE01BDDC
:104FF000FEE7FEE7FEE7FEE770477047704780B5C3
:1050000000F004F8FEF798FF01BD000002480068B8
:10501000401C014908607047300800204EF6885156
:10502000CEF20001086840F470000860BFF34F8FB3
:10503000BFF36F8F4FF00070E1EE100A7047000071
:10504000E5FEFFFFF8000000400700200000000020
:1050500015FFFFFFD40200006200000000000020E6
:1050600000F00BF8002801D0FFF798FF0020C046A1
:10507000C046FDF70FFC00F002F80120704700F079
:1050800001B800000746384600F002F8FBE70000D0
:1050900080B5C046C046024A11001820ABBEFBE7EF
:1050A0002600020038B504460D46284600F006F8F2
:1050B000A84218BF0024204632BD00000149FDF778
:1050C000FDBE00BF0400002043617264205479706B
:1050D0006528307825303458293A00004D696661DA
:1050E000726520556C7472614C696768740A0D00B2
:1050F0004D6966617265204F6E6528533530290A07
:105100000D0000004D6966617265204F6E65285381
:105110003730290A0D0000004D6966617265204430
:105120004553466972650A0D00000000416E7469BE
:10513000636F6C6C204572726F720A0D0000000084
:1051400053656C6563742043617264204572726FAD
:10515000720A0D00417574682053746174652045AE
:1051600072726F720A0D00004361726420526561B1
:1051700064204572726F720A0D0000004D6966610D
:1051800072652050726F2858290A0D00556E6B6E9B
:105190006F776E20436172640A0D0000000000000A
:1051A00001020304010203040607080901488047BD
:1051B00001480047694D0008C95100081B5B313B9D
:1051C00034303B33326D0000C046C046FFF726FF47
:1051D000FFF746FFFFFFFFFFFFFF000025303258BB
:1051E00020000000FFF7FEBFFFF7FEBFFFF7FEBF86
:1051F000FFF7FEBFFFF7FEBFFFF7FEBFFFF7FEBFE3
:10520000FFF7FEBFFFF7FEBFFFF7FEBFFFF7FEBFD2
:10521000FFF7FEBFFFF7FEBFFFF7FEBFFFF7FEBFC2
:10522000FFF7FEBFFFF7FEBFFFF7FEBFFFF7FEBFB2
:10523000FFF7FEBFFFF7FEBFFFF7FEBFFFF7FEBFA2
:10524000FFF7FEBFFFF7FEBFFFF7FEBFFFF7FEBF92
:10525000FFF7FEBFFFF7FEBFFFF7FEBFFFF7FEBF82
:10526000FFF7FEBFFFF7FEBFFFF7FEBFFFF7FEBF72
:10527000FFF7FEBFFFF7FEBFFFF7FEBFFFF7FEBF62
:10528000FFF7FEBFFFF7FEBFFFF7FEBFFFF7FEBF52
:10529000FFF7FEBFFFF7FEBFFFF7FEBFFFF7FEBF42
:1052A000FFF7FEBFFFF7FEBFFFF7FEBFFFF7FEBF32
:1052B000FFF7FEBFFFF7FEBFFFF7FEBFFFF7FEBF22
:1052C000FFF7FEBFFFF7FEBFFFF7FEBFFFF7FEBF12
:1052D000FFF7FEBFFFF7FEBFFFF7FEBFFFF7FEBF02
:1052E000FFF7FEBFFFF7FEBFFFF7FEBFFFF7FEBFF2
:1052F000FFF7FEBFFFF7FEBFFFF7FEBFFFF7FEBFE2
:10530000FFF7FEBFFFF7FEBFFFF7FEBFFFF7FEBFD1
:10531000FFF7FEBFFFF7FEBFFFF7FEBFFFF7FEBFC1
:10532000FFF7FEBFFFF7FEBF230024F400020401D5
:105330000198070020E80700209807002098070040
:1053400020980700204100002028000020C400F819
:09535000FFDC00FAFF8100D1002E
:04000005080051C9D5
:00000001FF
